{
  "contractName": "notas",
  "abi": [
    {
      "inputs": [],
      "stateMutability": "nonpayable",
      "type": "constructor"
    },
    {
      "anonymous": false,
      "inputs": [
        {
          "indexed": false,
          "internalType": "bytes32",
          "name": "",
          "type": "bytes32"
        }
      ],
      "name": "alumno_evaluado",
      "type": "event"
    },
    {
      "anonymous": false,
      "inputs": [
        {
          "indexed": false,
          "internalType": "string",
          "name": "",
          "type": "string"
        }
      ],
      "name": "alumno_revision",
      "type": "event"
    },
    {
      "inputs": [],
      "name": "profesor",
      "outputs": [
        {
          "internalType": "address",
          "name": "",
          "type": "address"
        }
      ],
      "stateMutability": "view",
      "type": "function"
    },
    {
      "inputs": [
        {
          "internalType": "string",
          "name": "_asignatura",
          "type": "string"
        },
        {
          "internalType": "string",
          "name": "_idAlumno",
          "type": "string"
        },
        {
          "internalType": "uint256",
          "name": "_nota",
          "type": "uint256"
        }
      ],
      "name": "evaluar",
      "outputs": [],
      "stateMutability": "nonpayable",
      "type": "function"
    },
    {
      "inputs": [
        {
          "internalType": "string",
          "name": "_asignatura",
          "type": "string"
        },
        {
          "internalType": "string",
          "name": "_idAlumno",
          "type": "string"
        }
      ],
      "name": "verNotas",
      "outputs": [
        {
          "internalType": "uint256",
          "name": "",
          "type": "uint256"
        }
      ],
      "stateMutability": "view",
      "type": "function"
    },
    {
      "inputs": [
        {
          "internalType": "string",
          "name": "_asignatura",
          "type": "string"
        },
        {
          "internalType": "string",
          "name": "_idAlumno",
          "type": "string"
        }
      ],
      "name": "revision",
      "outputs": [],
      "stateMutability": "nonpayable",
      "type": "function"
    },
    {
      "inputs": [
        {
          "internalType": "string",
          "name": "_asignatura",
          "type": "string"
        }
      ],
      "name": "verRevisiones",
      "outputs": [
        {
          "internalType": "string[]",
          "name": "",
          "type": "string[]"
        }
      ],
      "stateMutability": "view",
      "type": "function"
    }
  ],
  "bytecode": "0x608060405234801561001057600080fd5b50336000806101000a81548173ffffffffffffffffffffffffffffffffffffffff021916908373ffffffffffffffffffffffffffffffffffffffff160217905550610b5f806100606000396000f3fe608060405234801561001057600080fd5b50600436106100575760003560e01c806307abac211461005c57806315349c841461008c5780639d3efa1f146100a8578063df096576146100c4578063e0b8c302146100e2575b600080fd5b610076600480360381019061007191906105d4565b610112565b6040516100839190610915565b60405180910390f35b6100a660048036038101906100a19190610681565b6102aa565b005b6100c260048036038101906100bd9190610615565b6103bd565b005b6100cc610450565b6040516100d991906108fa565b60405180910390f35b6100fc60048036038101906100f79190610615565b610475565b6040516101099190610994565b60405180910390f35b6060336000809054906101000a900473ffffffffffffffffffffffffffffffffffffffff1673ffffffffffffffffffffffffffffffffffffffff168173ffffffffffffffffffffffffffffffffffffffff16146101a4576040517f08c379a000000000000000000000000000000000000000000000000000000000815260040161019b90610974565b60405180910390fd5b6002836040516101b491906108bf565b9081526020016040518091039020805480602002602001604051908101604052809291908181526020016000905b8282101561029e578382906000526020600020018054600181600116156101000203166002900480601f01602080910402602001604051908101604052809291908181526020018280546001816001161561010002031660029004801561028a5780601f1061025f5761010080835404028352916020019161028a565b820191906000526020600020905b81548152906001019060200180831161026d57829003601f168201915b5050505050815260200190600101906101e2565b50505050915050919050565b336000809054906101000a900473ffffffffffffffffffffffffffffffffffffffff1673ffffffffffffffffffffffffffffffffffffffff168173ffffffffffffffffffffffffffffffffffffffff161461033a576040517f08c379a000000000000000000000000000000000000000000000000000000000815260040161033190610974565b60405180910390fd5b6000848460405160200161034f9291906108d6565b6040516020818303038152906040528051906020012090508260016000838152602001908152602001600020819055507f9129eeeb684507aca017f10030b70e5bf86d129f417fcc5840348a957eb12cee816040516103ae9190610937565b60405180910390a15050505050565b6002826040516103cd91906108bf565b9081526020016040518091039020819080600181540180825580915050600190039060005260206000200160009091909190915090805190602001906104149291906104c6565b507fda54ae32b95badf15c44a6d434bfbad94fc638b9013009cc58c2d222ddc2113f816040516104449190610952565b60405180910390a15050565b6000809054906101000a900473ffffffffffffffffffffffffffffffffffffffff1681565b600080838360405160200161048b9291906108d6565b604051602081830303815290604052805190602001209050600060016000838152602001908152602001600020549050809250505092915050565b828054600181600116156101000203166002900490600052602060002090601f016020900481019282601f1061050757805160ff1916838001178555610535565b82800160010185558215610535579182015b82811115610534578251825591602001919060010190610519565b5b5090506105429190610546565b5090565b61056891905b8082111561056457600081600090555060010161054c565b5090565b90565b600082601f83011261057c57600080fd5b813561058f61058a826109dc565b6109af565b915080825260208301602083018583830111156105ab57600080fd5b6105b6838284610abf565b50505092915050565b6000813590506105ce81610b12565b92915050565b6000602082840312156105e657600080fd5b600082013567ffffffffffffffff81111561060057600080fd5b61060c8482850161056b565b91505092915050565b6000806040838503121561062857600080fd5b600083013567ffffffffffffffff81111561064257600080fd5b61064e8582860161056b565b925050602083013567ffffffffffffffff81111561066b57600080fd5b6106778582860161056b565b9150509250929050565b60008060006060848603121561069657600080fd5b600084013567ffffffffffffffff8111156106b057600080fd5b6106bc8682870161056b565b935050602084013567ffffffffffffffff8111156106d957600080fd5b6106e58682870161056b565b92505060406106f6868287016105bf565b9150509250925092565b600061070c83836107a7565b905092915050565b61071d81610a79565b82525050565b600061072e82610a18565b6107388185610a3b565b93508360208202850161074a85610a08565b8060005b8581101561078657848403895281516107678582610700565b945061077283610a2e565b925060208a0199505060018101905061074e565b50829750879550505050505092915050565b6107a181610a8b565b82525050565b60006107b282610a23565b6107bc8185610a4c565b93506107cc818560208601610ace565b6107d581610b01565b840191505092915050565b60006107eb82610a23565b6107f58185610a5d565b9350610805818560208601610ace565b61080e81610b01565b840191505092915050565b600061082482610a23565b61082e8185610a6e565b935061083e818560208601610ace565b80840191505092915050565b6000610857602d83610a5d565b91507f4e6f207469656e6573207065726d69736f73207061726120656a65637574617260008301527f20657374612066756e63696f6e000000000000000000000000000000000000006020830152604082019050919050565b6108b981610ab5565b82525050565b60006108cb8284610819565b915081905092915050565b60006108e28285610819565b91506108ee8284610819565b91508190509392505050565b600060208201905061090f6000830184610714565b92915050565b6000602082019050818103600083015261092f8184610723565b905092915050565b600060208201905061094c6000830184610798565b92915050565b6000602082019050818103600083015261096c81846107e0565b905092915050565b6000602082019050818103600083015261098d8161084a565b9050919050565b60006020820190506109a960008301846108b0565b92915050565b6000604051905081810181811067ffffffffffffffff821117156109d257600080fd5b8060405250919050565b600067ffffffffffffffff8211156109f357600080fd5b601f19601f8301169050602081019050919050565b6000819050602082019050919050565b600081519050919050565b600081519050919050565b6000602082019050919050565b600082825260208201905092915050565b600082825260208201905092915050565b600082825260208201905092915050565b600081905092915050565b6000610a8482610a95565b9050919050565b6000819050919050565b600073ffffffffffffffffffffffffffffffffffffffff82169050919050565b6000819050919050565b82818337600083830152505050565b60005b83811015610aec578082015181840152602081019050610ad1565b83811115610afb576000848401525b50505050565b6000601f19601f8301169050919050565b610b1b81610ab5565b8114610b2657600080fd5b5056fea2646970667358221220aada2bbb57699e800137bfe8a80828b3c1b2db218e5d75d411d1759a50523bbe64736f6c63430006060033",
  "immutableReferences": {},
  "source": "// SPDX-License-Identifier: MIT\r\n\r\npragma solidity >=0.4.4 < 0.7.0;\r\npragma experimental ABIEncoderV2;\r\n\r\ncontract notas {\r\n    //direccion del profesor\r\n    address public profesor;\r\n    \r\n    constructor() public {\r\n        // msg.sender es la direccion de quien despliega el contrato\r\n        profesor = msg.sender;\r\n    }\r\n\r\n    // Mapping para relacionar el hash de la identidad del alumno con su nota del examen\r\n    mapping(bytes32 => uint) Notas;\r\n\r\n    // Array de los alumnos que pidan revision de examen\r\n    mapping (string => string[]) revisiones;\r\n\r\n    // Eventos\r\n    event alumno_evaluado(bytes32);\r\n    event alumno_revision(string);\r\n\r\n    // Funcion para evaluar alumnos\r\n    function evaluar(string memory _asignatura, string memory _idAlumno, uint _nota) public UnicamenteProfesor(msg.sender) {\r\n        // Hash de la identificacion del alumno\r\n        bytes32 hash_idAlumno = keccak256(abi.encodePacked(_asignatura, _idAlumno));\r\n        // Relacion entre el hash de la identificacion del alumno y su nota\r\n        Notas[hash_idAlumno] = _nota;\r\n        // Emision del evento\r\n        emit alumno_evaluado(hash_idAlumno);\r\n    }\r\n\r\n    modifier UnicamenteProfesor(address _direccion) {\r\n        // Requiere que la direccion introducida sea igual al dueño del contrato (quien lo despliega)\r\n        require(_direccion == profesor, \"No tienes permisos para ejecutar esta funcion\");\r\n        _;\r\n    }\r\n\r\n    // Funcion para ver las notas de un alumno\r\n    function verNotas(string memory _asignatura, string memory _idAlumno) public view returns(uint) {\r\n         // Hash de la identificacion del alumno\r\n         bytes32 hash_idAlumno = keccak256(abi.encodePacked(_asignatura, _idAlumno));\r\n         uint nota_alumno = Notas[hash_idAlumno];\r\n         // Visualizar la nota\r\n         return nota_alumno;\r\n    }\r\n\r\n    function revision(string memory _asignatura, string memory _idAlumno) public {\r\n        // Almacenamiento de la identificacion de un alumno\r\n        revisiones[_asignatura].push(_idAlumno);\r\n        // Emision del evento\r\n        emit alumno_revision(_idAlumno);\r\n    }\r\n\r\n    // Funcion para ver los alumnos que han solicitado revision de examen\r\n    function verRevisiones(string memory _asignatura) public view UnicamenteProfesor(msg.sender) returns(string[] memory ) {\r\n        return revisiones[_asignatura];\r\n    }\r\n}",
  "sourcePath": "C:\\Users\\gusti\\source\\repos\\Solidity\\Proyecto con Truffle 2\\contracts\\notas.sol",
  "compiler": {
    "name": "solc",
    "version": "0.6.6+commit.6c089d02.Emscripten.clang"
  },
  "schemaVersion": "3.4.4",
  "updatedAt": "2022-01-16T17:25:18.774Z",
  "devdoc": {
    "methods": {}
  },
  "userdoc": {
    "methods": {}
  }
}